{
  "contractName": "Weather",
  "abi": [
    {
      "inputs": [],
      "payable": false,
      "stateMutability": "nonpayable",
      "type": "constructor"
    },
    {
      "constant": true,
      "inputs": [],
      "name": "maxAmountOfBets",
      "outputs": [
        {
          "internalType": "uint256",
          "name": "",
          "type": "uint256"
        }
      ],
      "payable": false,
      "stateMutability": "view",
      "type": "function"
    },
    {
      "constant": true,
      "inputs": [],
      "name": "minimumBet",
      "outputs": [
        {
          "internalType": "uint256",
          "name": "",
          "type": "uint256"
        }
      ],
      "payable": false,
      "stateMutability": "view",
      "type": "function"
    },
    {
      "constant": true,
      "inputs": [],
      "name": "numberOfBets",
      "outputs": [
        {
          "internalType": "uint256",
          "name": "",
          "type": "uint256"
        }
      ],
      "payable": false,
      "stateMutability": "view",
      "type": "function"
    },
    {
      "constant": true,
      "inputs": [],
      "name": "owner",
      "outputs": [
        {
          "internalType": "address payable",
          "name": "",
          "type": "address"
        }
      ],
      "payable": false,
      "stateMutability": "view",
      "type": "function"
    },
    {
      "constant": true,
      "inputs": [
        {
          "internalType": "address",
          "name": "",
          "type": "address"
        }
      ],
      "name": "playerInfo",
      "outputs": [
        {
          "internalType": "uint256",
          "name": "amountBet",
          "type": "uint256"
        },
        {
          "internalType": "bool",
          "name": "over",
          "type": "bool"
        }
      ],
      "payable": false,
      "stateMutability": "view",
      "type": "function"
    },
    {
      "constant": true,
      "inputs": [
        {
          "internalType": "uint256",
          "name": "",
          "type": "uint256"
        }
      ],
      "name": "players",
      "outputs": [
        {
          "internalType": "address payable",
          "name": "",
          "type": "address"
        }
      ],
      "payable": false,
      "stateMutability": "view",
      "type": "function"
    },
    {
      "constant": true,
      "inputs": [],
      "name": "totalBet",
      "outputs": [
        {
          "internalType": "uint256",
          "name": "",
          "type": "uint256"
        }
      ],
      "payable": false,
      "stateMutability": "view",
      "type": "function"
    },
    {
      "constant": false,
      "inputs": [],
      "name": "kill",
      "outputs": [],
      "payable": false,
      "stateMutability": "nonpayable",
      "type": "function"
    },
    {
      "constant": true,
      "inputs": [
        {
          "internalType": "address",
          "name": "player",
          "type": "address"
        }
      ],
      "name": "checkPlayerStatus",
      "outputs": [
        {
          "internalType": "bool",
          "name": "",
          "type": "bool"
        }
      ],
      "payable": false,
      "stateMutability": "view",
      "type": "function"
    },
    {
      "constant": true,
      "inputs": [],
      "name": "checkBalance",
      "outputs": [
        {
          "internalType": "uint256",
          "name": "",
          "type": "uint256"
        }
      ],
      "payable": false,
      "stateMutability": "view",
      "type": "function"
    },
    {
      "constant": false,
      "inputs": [
        {
          "internalType": "bool",
          "name": "over",
          "type": "bool"
        }
      ],
      "name": "bet",
      "outputs": [],
      "payable": true,
      "stateMutability": "payable",
      "type": "function"
    },
    {
      "constant": false,
      "inputs": [
        {
          "internalType": "bool",
          "name": "result",
          "type": "bool"
        }
      ],
      "name": "distributePrizes",
      "outputs": [],
      "payable": false,
      "stateMutability": "nonpayable",
      "type": "function"
    }
  ],
  "bytecode": "0x60806040526103e860045534801561001657600080fd5b50336000806101000a81548173ffffffffffffffffffffffffffffffffffffffff021916908373ffffffffffffffffffffffffffffffffffffffff160217905550655af3107a40006001819055506000600281905550610c0a8061007b6000396000f3fe6080604052600436106100a75760003560e01c8063c38a8afd11610064578063c38a8afd1461024e578063c71daccb14610279578063e08a96cd146102a4578063f71d96cb146102cf578063f95d937f1461034a578063fe5e185314610387576100a7565b80632ca8c6d3146100ac57806341c0e1b5146100d757806348f155f7146100ee5780634b11469114610157578063523afb0d146101c75780638da5cb5b146101f7575b600080fd5b3480156100b857600080fd5b506100c16103b2565b6040518082815260200191505060405180910390f35b3480156100e357600080fd5b506100ec6103b8565b005b3480156100fa57600080fd5b5061013d6004803603602081101561011157600080fd5b81019080803573ffffffffffffffffffffffffffffffffffffffff169060200190929190505050610449565b604051808215151515815260200191505060405180910390f35b34801561016357600080fd5b506101a66004803603602081101561017a57600080fd5b81019080803573ffffffffffffffffffffffffffffffffffffffff1690602001909291905050506104eb565b60405180838152602001821515151581526020019250505060405180910390f35b6101f5600480360360208110156101dd57600080fd5b8101908080351515906020019092919050505061051c565b005b34801561020357600080fd5b5061020c610658565b604051808273ffffffffffffffffffffffffffffffffffffffff1673ffffffffffffffffffffffffffffffffffffffff16815260200191505060405180910390f35b34801561025a57600080fd5b5061026361067d565b6040518082815260200191505060405180910390f35b34801561028557600080fd5b5061028e610683565b6040518082815260200191505060405180910390f35b3480156102b057600080fd5b506102b961068d565b6040518082815260200191505060405180910390f35b3480156102db57600080fd5b50610308600480360360208110156102f257600080fd5b8101908080359060200190929190505050610693565b604051808273ffffffffffffffffffffffffffffffffffffffff1673ffffffffffffffffffffffffffffffffffffffff16815260200191505060405180910390f35b34801561035657600080fd5b506103856004803603602081101561036d57600080fd5b810190808035151590602001909291905050506106cf565b005b34801561039357600080fd5b5061039c610b65565b6040518082815260200191505060405180910390f35b60035481565b6000809054906101000a900473ffffffffffffffffffffffffffffffffffffffff1673ffffffffffffffffffffffffffffffffffffffff163373ffffffffffffffffffffffffffffffffffffffff161415610447576000809054906101000a900473ffffffffffffffffffffffffffffffffffffffff1673ffffffffffffffffffffffffffffffffffffffff16ff5b565b600080600090505b6005805490508110156104e0578273ffffffffffffffffffffffffffffffffffffffff166005828154811061048257fe5b9060005260206000200160009054906101000a900473ffffffffffffffffffffffffffffffffffffffff1673ffffffffffffffffffffffffffffffffffffffff1614156104d35760019150506104e6565b8080600101915050610451565b50600090505b919050565b60066020528060005260406000206000915090508060000154908060010160009054906101000a900460ff16905082565b61052533610449565b1561052f57600080fd5b60015434101561053e57600080fd5b34600660003373ffffffffffffffffffffffffffffffffffffffff1673ffffffffffffffffffffffffffffffffffffffff1681526020019081526020016000206000018190555080600660003373ffffffffffffffffffffffffffffffffffffffff1673ffffffffffffffffffffffffffffffffffffffff16815260200190815260200160002060010160006101000a81548160ff02191690831515021790555060053390806001815401808255809150509060018203906000526020600020016000909192909190916101000a81548173ffffffffffffffffffffffffffffffffffffffff021916908373ffffffffffffffffffffffffffffffffffffffff160217905550503460026000828254019250508190555050565b6000809054906101000a900473ffffffffffffffffffffffffffffffffffffffff1681565b60015481565b6000600254905090565b60045481565b600581815481106106a057fe5b906000526020600020016000915054906101000a900473ffffffffffffffffffffffffffffffffffffffff1681565b6000809054906101000a900473ffffffffffffffffffffffffffffffffffffffff1673ffffffffffffffffffffffffffffffffffffffff163373ffffffffffffffffffffffffffffffffffffffff161461072857600080fd5b610730610b6b565b60008090506000809050600080905060008090505b60058054905081101561097757851515600660006005848154811061076657fe5b9060005260206000200160009054906101000a900473ffffffffffffffffffffffffffffffffffffffff1673ffffffffffffffffffffffffffffffffffffffff1673ffffffffffffffffffffffffffffffffffffffff16815260200190815260200160002060010160009054906101000a900460ff16151514156108eb5760066000600583815481106107f557fe5b9060005260206000200160009054906101000a900473ffffffffffffffffffffffffffffffffffffffff1673ffffffffffffffffffffffffffffffffffffffff1673ffffffffffffffffffffffffffffffffffffffff16815260200190815260200160002060000154820191506005818154811061086f57fe5b9060005260206000200160009054906101000a900473ffffffffffffffffffffffffffffffffffffffff1685856103e881106108a757fe5b602002019073ffffffffffffffffffffffffffffffffffffffff16908173ffffffffffffffffffffffffffffffffffffffff1681525050838060010194505061096a565b60066000600583815481106108fc57fe5b9060005260206000200160009054906101000a900473ffffffffffffffffffffffffffffffffffffffff1673ffffffffffffffffffffffffffffffffffffffff1673ffffffffffffffffffffffffffffffffffffffff16815260200190815260200160002060000154830192505b8080600101915050610745565b5060008090505b83811015610aa257600073ffffffffffffffffffffffffffffffffffffffff1685826103e881106109ab57fe5b602002015173ffffffffffffffffffffffffffffffffffffffff1614610a955784816103e881106109d857fe5b602002015173ffffffffffffffffffffffffffffffffffffffff166108fc61271084612710870281610a0657fe5b0461271001600660008a876103e88110610a1c57fe5b602002015173ffffffffffffffffffffffffffffffffffffffff1673ffffffffffffffffffffffffffffffffffffffff168152602001908152602001600020600001540281610a6757fe5b049081150290604051600060405180830381858888f19350505050158015610a93573d6000803e3d6000fd5b505b808060010191505061097e565b5060066000600560016005805490500381548110610abc57fe5b9060005260206000200160009054906101000a900473ffffffffffffffffffffffffffffffffffffffff1673ffffffffffffffffffffffffffffffffffffffff1673ffffffffffffffffffffffffffffffffffffffff1681526020019081526020016000206000808201600090556001820160006101000a81549060ff0219169055505060056000610b4e9190610b8f565b600091506000905060006002819055505050505050565b60025481565b60405180617d0001604052806103e890602082028038833980820191505090505090565b5080546000825590600052602060002090810190610bad9190610bb0565b50565b610bd291905b80821115610bce576000816000905550600101610bb6565b5090565b9056fea265627a7a72315820aad857b055a06563480db99462acc288145fdcd990653a9c8a1ed27692d1fde764736f6c63430005100032",
  "source": "\n   pragma solidity >0.4.99;\n   contract Weather {\n       address payable public owner;\n       uint256 public minimumBet;\n       uint256 public totalBet;\n       uint256 public numberOfBets;\n       uint256 public maxAmountOfBets = 1000;\n\n       address payable[] public players;\n\n       struct Player {\n          uint256 amountBet;\n          bool over;\n       }\n\n       // Address of the player and => the user info\n       mapping(address => Player) public playerInfo;  //find method\n\n       function kill() public {\n          if(msg.sender == owner) selfdestruct(owner);\n        }\n\n       constructor() public {\n          owner = msg.sender;\n          minimumBet = 100000000000000;\n          totalBet = 0;\n       }\n\n       function checkPlayerStatus(address player) public view returns(bool) {\n           for(uint256 i=0; i<players.length; i++) {\n               if(players[i] == player) {return true;}\n           }\n           return false;\n       }\n\n       function checkBalance() public view returns(uint256) { return totalBet;}\n\n       function bet(bool over) public payable {\n           require(!checkPlayerStatus(msg.sender));\n\n           require(msg.value >= minimumBet);\n\n           playerInfo[msg.sender].amountBet = msg.value;\n           playerInfo[msg.sender].over = over;\n\n           players.push(msg.sender);\n\n           totalBet += msg.value;\n       }\n\n       function distributePrizes(bool result) public {\n\n          require(msg.sender == owner);\n          address payable[1000] memory winners;\n\n          uint256  winnercount = 0;\n          uint256  losingbet = 0;\n          uint256  winningbet = 0;\n\n\n          for(uint256 i=0; i<players.length; i++) {\n              if(playerInfo[ players[i]].over == result) {\n                  winningbet += playerInfo[ players[i]].amountBet;\n                  winners[winnercount] =  players[i];\n                  winnercount++;\n              }\n              else {\n                  losingbet += playerInfo[players[i]].amountBet;\n              }\n          }\n\n          for(uint256 j=0; j<winnercount; j++) {\n              if(winners[j] != address(0)) {\n                 winners[j].transfer((playerInfo[winners[j]].amountBet*(10000+(losingbet*10000/winningbet)))/10000 );\n              }\n          }\n\n          delete playerInfo[players[players.length-1]];\n\n          delete players;\n\n          losingbet = 0; //reinitialize the bets\n          winningbet = 0;\n          totalBet = 0;\n\n\n       }\n   }\n",
  "sourcePath": "/Users/sammesfin/blockchain/weather/contracts/Weather.sol",
  "compiler": {
    "name": "solc",
    "version": "0.5.16+commit.9c3226ce.Emscripten.clang"
  },
  "schemaVersion": "3.3.2",
  "updatedAt": "2021-02-04T04:02:45.368Z",
  "devdoc": {
    "methods": {}
  },
  "userdoc": {
    "methods": {}
  }
}